:0200000480007A
:100000006F00C0006F0000006F00C0029702000088
:10001000938282027390523073500030735040309C
:10002000972100009381019A172100001301812379
:100030006F00001E130101F823201100232221006C
:10004000232431002326410023285100232A610064
:10005000232C7100232E8100232091022322A10250
:100060002324B1022326C1022328D102232AE1023C
:10007000232CF102232E0103232011052322210525
:10008000232431052326410523285105232A610510
:10009000232C7105232E8105232091072322A107FC
:1000A0002324B1072326C1072328D107232AE107E8
:1000B000232CF107F3221034232E5106732520340C
:1000C000F325103413060100EF00004973101534B6
:1000D000B72200009382028073A0023083200100C7
:1000E00003214100832181000322C10083220101F9
:1000F00003234101832381010324C10183240102DD
:1001000003254102832581020326C10283260103C0
:1001100003274103832781030328C10383280104A4
:100120000329410483298104032AC104832A010588
:10013000032B4105832B8105032CC105832C01066C
:10014000032D4106832D8106032EC106832E010750
:10015000032F4107832F810713010108730020300B
:10016000130101FE232E8100130401022326A4FEA5
:100170002324B4FE2322C4FE6F00C0028327C4FEE2
:1001800003A70700832784FE23A0E7008327C4FE7C
:10019000938747002326F4FE832784FE9387470036
:1001A0002324F4FE032784FE832744FEE3F8E7FCC0
:1001B000130000000324C101130101026780000045
:1001C000130101FD2326810213040103232EA4FC45
:1001D000232CB4FC8327C4FD2326F4FE6F0080018A
:1001E0008327C4FE23A007008327C4FE938747000C
:1001F0002326F4FE0327C4FE832784FDE3F2E7FEF3
:10020000130000000324C1021301010367800000F2
:10021000130101FE232E1100232C8100130401027F
:10022000B71700809387071B2326F4FE8327C4FE9D
:100230002320F4FE232204FE232404FEB7170080AB
:100240001386071CB71700809385071CB71700801B
:100250001385071CEFF0DFF013860188B7170080C5
:100260009385071CB71700801385071CEFF05FEF1D
:100270009385018913850188EFF09FF49385018AA6
:1002800013850189EFF0DFF3930704FE93850700E0
:1002900013051000EF001065130000008320C1015A
:1002A000032481011301010267800000130101FF93
:1002B0002326810013040101130000000324C10060
:1002C0001301010167800000130101FD2326810253
:1002D00013040103232EA4FCF32740F12326F4FE8C
:1002E0008327C4FE2324F4FE370700408327C4FD80
:1002F00093D75700832684FE93965600B386F60064
:10030000B717000093870780B387F60093972700FD
:10031000B307F70083A707002322F4FE8327C4FD59
:1003200093F7F70113071000B317F70093C7F7FF10
:10033000032744FEB377F7002322F4FE370700407B
:100340008327C4FD93D75700832684FE93965600D7
:10035000B386F600B717000093870780B387F600CF
:1003600093972700B307F700032744FE23A0E70075
:10037000130000000324C102130101036780000081
:10038000130101FE232E810013040102F32740F123
:100390002326F4FE8327C4FE2324F4FE37070040FF
:1003A000832784FE938707209397C700B307F7003E
:1003B00083A74700138507000324C101130101022D
:1003C00067800000130101FD23268102130401034D
:1003D000232EA4FCF32740F12326F4FE8327C4FE3A
:1003E0002324F4FE37070040832784FE93870720E9
:1003F0009397C700B307F7000327C4FD23A2E700C4
:10040000130000000324C1021301010367800000F0
:10041000130101FE232E1100232C8100130401027D
:1004200093070008F3B747302326F4FEEF000024BB
:1004300037070044B7C70000B307F70003A8C7FF9A
:1004400083A787FF83A5018803A641883705004459
:10045000732740F12324E4FE832884FEB386B7008B
:10046000138306003333F3003307C800B307E300F8
:10047000138707009387060013080700371700004B
:10048000130707803387E800131737003307E500A9
:100490002320F7002322070193070008F3A7473022
:1004A0002322F4FE130000008320C10103248101F4
:1004B0001301010267800000130101FE232E1100C9
:1004C000232C810013040102EFF09FEB2326A4FEEE
:1004D000A30504FEB71700800327C4FE13172700E7
:1004E0009387071CB307F70083A70700E78007007F
:1004F00093070500A305F4FE0325C4FEEFF09FEC6F
:100500000347B4FE930710006316F7000325C4FEEB
:10051000EFF09FDB130000008320C1010324810161
:100520001301010267800000130101FF232611005F
:100530002324810013040101EF00C011B707004418
:1005400023A00700130000008320C10003248100C2
:100550001301010167800000130101FB2326110430
:100560002324810413040105232EA4FA232CB4FAB6
:100570008327C4FB63D207020327C4FBB7070080AD
:1005800093C7F7FF3377F7009307B0006316F700C0
:10059000EFF09FF26F00800A8327C4FB63D207024B
:1005A0000327C4FBB707008093C7F7FF3377F70033
:1005B000930770006316F700EFF09FE56F000008E7
:1005C0008327C4FB63D207020327C4FBB70700805D
:1005D00093C7F7FF3377F700930730006316F700F0
:1005E000EFF09FF46F008005F32740342326F4FEDC
:1005F0008327C4FE2324F4FEF32730342322F4FEA1
:10060000832744FE2320F4FEF3275030232EF4FCEE
:100610008327C4FD232CF4FCF3270034232AF4FCA5
:10062000832744FD2328F4FCF32700302326F4FC21
:100630008327C4FC2324F4FC73001000832784FB6D
:10064000138507008320C1040324810413010105DD
:1006500067800000130101FF23261100232481007D
:10066000130401011305A000EF000042130101FF74
:100670002326810013040101130000000324C1009C
:100680001301010167800000130101FF232681008F
:100690001304010193070000138507000324C10020
:1006A0001301010167800000130101FF232681006F
:1006B0001304010193070000138507000324C10000
:1006C0001301010167800000130101FF232681004F
:1006D0001304010193070000138507000324C100E0
:1006E0001301010167800000130101FF232681002F
:1006F0001304010193070000138507000324C100C0
:100700001301010167800000130101FF232681000E
:100710001304010193070000138507000324C1009F
:100720001301010167800000130101FF23268100EE
:100730001304010193070000138507000324C1007F
:100740001301010167800000130101FF23268100CE
:100750001304010193070000138507000324C1005F
:100760001301010167800000130101FF23268100AE
:100770001304010193070000138507000324C1003F
:100780001301010167800000130101FF232681008E
:100790001304010193070000138507000324C1001F
:1007A0001301010167800000130101FF232681006E
:1007B0001304010193070000138507000324C100FF
:1007C0001301010167800000130101FF232681004E
:1007D0001304010193070000138507000324C100DF
:1007E0001301010167800000130101FF232681002E
:1007F0001304010193070000138507000324C100BF
:100800001301010167800000130101FF232681000D
:100810001304010193070000138507000324C1009E
:100820001301010167800000130101FF23268100ED
:100830001304010193070000138507000324C1007E
:100840001301010167800000130101FF23268100CD
:100850001304010193070000138507000324C1005E
:100860001301010167800000130101FF23268100AD
:100870001304010193070000138507000324C1003E
:100880001301010167800000130101FF232681008D
:100890001304010193070000138507000324C1001E
:1008A0001301010167800000130101FF232681006D
:1008B0001304010193070000138507000324C100FE
:1008C0001301010167800000130101FF232681004D
:1008D0001304010193070000138507000324C100DE
:1008E0001301010167800000130101FF232681002D
:1008F0001304010193070000138507000324C100BE
:100900001301010167800000130101FF232681000C
:100910001304010193070000138507000324C1009D
:100920001301010167800000130101FF23268100EC
:100930001304010193070000138507000324C1007D
:100940001301010167800000130101FF23268100CC
:100950001304010193070000138507000324C1005D
:100960001301010167800000130101FF23268100AC
:100970001304010193070000138507000324C1003D
:100980001301010167800000130101FF232681008C
:100990001304010193070000138507000324C1001D
:1009A0001301010167800000130101FF232681006C
:1009B0001304010193070000138507000324C100FD
:1009C0001301010167800000130101FF232681004C
:1009D0001304010193070000138507000324C100DD
:1009E0001301010167800000130101FF232681002C
:1009F0001304010193070000138507000324C100BD
:100A00001301010167800000130101FF232681000B
:100A10001304010193070000138507000324C1009C
:100A20001301010167800000130101FF23268100EB
:100A30001304010193070000138507000324C1007C
:100A40001301010167800000130101FF23268100CB
:100A50001304010193070000138507000324C1005C
:100A60001301010167800000130101FF23268100AB
:100A70001304010193070000138507000324C1003C
:100A80001301010167800000130101FE232E810084
:100A9000130401022326A4FE6F0000002320B500EA
:100AA000678000000325050067800000138E0600A4
:100AB000331EBE00337ECE000323050093030600E1
:100AC00093C3F3FF337373003363C30123206500C3
:100AD00067800000032505003375C5003355B50058
:100AE000678000002310B500678000000315050033
:100AF00067800000138E0600331EBE00337ECE00DA
:100B0000031305009303060093C3F3FF33737300CD
:100B10003363C301231065006780000003150500DF
:100B20003375C5003355B500678000002300B5005C
:100B3000678000000305050067800000138E060033
:100B4000331EBE00337ECE00030305009303060070
:100B500093C3F3FF337373003363C3012300650052
:100B600067800000030505003375C5003355B500E7
:100B700067800000130101FD232611022324810256
:100B800013040103232EA4FC232CB4FC232AC4FC4D
:100B9000A30704FE832784FD2324F4FE8327C4FDDA
:100BA000032784FD23A0E7008327C4FD032744FD1A
:100BB00023A2E700A30704FE832784FD2324F4FE79
:100BC0006F00800293050000032584FEEFF01FF6FE
:100BD000832784FE938747002324F4FE8347F4FE93
:100BE00093871700A307F4FE0347F4FE9307F00171
:100BF000E3FAE7FC8327C4FD83A74700130710002F
:100C0000638AE7021307100063E4E7061307200076
:100C10006384E7006F00000C8327C4FD83A70700EF
:100C2000938707089305F0FF13850700EFF01FE790
:100C30006F00400A8327C4FD83A7070013870708B6
:100C4000B70701009385F7FF13050700EFF09FE951
:100C50008327C4FD83A7070013874708B707010050
:100C60009385F7FF13050700EFF0DFE76F008006BD
:100C70008327C4FD83A70700938707089305F00F18
:100C800013850700EFF09FEA8327C4FD83A70700C1
:100C9000938747089305F00F13850700EFF01FE9CE
:100CA0008327C4FD83A70700938787089305F00F68
:100CB00013850700EFF09FE78327C4FD83A7070094
:100CC0009387C7089305F00F13850700EFF01FE621
:100CD00013000000130000008320C10203248102DE
:100CE0001301010367800000130101FD2326110297
:100CF0002324810213040103232EA4FC232CB4FC1F
:100D0000232AC4FC032784FD9307F00163E8E7026C
:100D10008327C4FD83A707002326F4FE832784FDD1
:100D2000939727000327C4FEB307F7002326F4FE9A
:100D3000832544FD0325C4FEEFF05FD613000000B9
:100D40008320C10203248102130101036780000094
:100D5000130101FE232E1100232C81001304010234
:100D60002326A4FE2324B4FE8327C4FE83A74700C2
:100D700013071000638AE7021307100063EEE7060B
:100D8000130720006384E7006F0000108327C4FE70
:100D900083A707009387070A832584FE138507002E
:100DA000EFF0DFCF6F00400E8327C4FE83A707005C
:100DB0009387070A032784FE1317070113570701B8
:100DC0009305070013850700EFF0DFD18327C4FEEA
:100DD00083A707001387470A832784FE93D7070159
:100DE0009397070193D70701938507001305070021
:100DF000EFF05FCF6F0040098327C4FE83A7070091
:100E00009387070A032784FE1377F70F93050700DC
:100E100013850700EFF09FD18327C4FE83A7070047
:100E20001387470A832784FE93D7870093F7F70F2A
:100E30009385070013050700EFF05FCF8327C4FEFB
:100E400083A707001387870A832784FE93D70701A8
:100E500093F7F70F9385070013050700EFF01FCDF9
:100E60008327C4FE83A707001387C70A832784FE4E
:100E700093D7870193F7F70F9385070013050700B2
:100E8000EFF0DFCA13000000130000008320C1014F
:100E9000032481011301010267800000130101FD99
:100EA000232611022324810213040103232EA4FC10
:100EB000232604FE8327C4FD83A7470013071000E1
:100EC000638AE7021307100063E2E70813072000B4
:100ED0006384E7006F0080128327C4FD83A70700A7
:100EE0009387070A13850700EFF0DFBB2326A4FED4
:100EF0006F00C0108327C4FD83A707009387070AEC
:100F000013850700EFF09FBE9307050013870700C6
:100F10008327C4FEB3E7E7002326F4FE8327C4FD3E
:100F200083A707009387470A13850700EFF01FBCCC
:100F30009307050093970701138707008327C4FED3
:100F4000B3E7E7002326F4FE6F00400B8327C4FDC0
:100F500083A707009387070A13850700EFF01FB9DF
:100F600093070500138707008327C4FEB3E7E70054
:100F70002326F4FE8327C4FD83A707009387470A2F
:100F800013850700EFF09FB693070500939787003E
:100F9000138707008327C4FEB3E7E7002326F4FE88
:100FA0008327C4FD83A707009387870A138507005B
:100FB000EFF0DFB39307050093970701138707004E
:100FC0008327C4FEB3E7E7002326F4FE8327C4FD8E
:100FD00083A707009387C70A13850700EFF01FB1A7
:100FE0009307050093978701138707008327C4FEA3
:100FF000B3E7E7002326F4FE130000008327C4FEB6
:10100000138507008320C102032481021301010319
:1010100067800000130101FE232E810013040102EA
:10102000F32740F12324F4FE832784FE2322F4FED9
:10103000232604FE6F00C00337070040832744FEC9
:10104000939657008327C4FEB386F600B7170000B7
:1010500093870780B387F60093972700B307F700BD
:1010600023A007008327C4FE938717002326F4FEDE
:101070008327C4FEE38207FC232604FE6F004002A0
:10108000370700408327C4FE93972700B307F70074
:1010900023A007008327C4FE938717002326F4FEAE
:1010A0000327C4FE9307E001E3FCE7FC3707004099
:1010B000832744FE938707209397C700B307F70061
:1010C00023A00700B717000093870780F3A74730D6
:1010D0002320F4FE130000000324C10113010102C8
:1010E00067800000130101FE232E1100232C8100D4
:1010F00013040102232404FEEFF0DFF113062000A5
:10110000B725007013850189EFF0DFA613065000A4
:101110009305000013850189EFF01FBD13065000F1
:101120009305100013850189EFF01FBC13065000D2
:101130009305200013850189EFF01FBB13065000B3
:101140009305300013850189EFF01FBA93059000D5
:1011500013850189EFF0DFBFB70708002324F4FEF1
:10116000832784FE9387F7FF2324F4FE832784FEDE
:10117000E348F0FEB70708002324F4FE1385018935
:10118000EFF0DFD12326A4FE8327C4FE93C7F70028
:101190002326F4FE8325C4FE13850189EFF05FBB8F
:1011A0006FF01FFC000000000000000000000000C5
:1011B00068656C6C6F00000000000000000000001B
:1011C00088060080A8060080C8060080E806008027
:1011D0000807008028070080480700806807008013
:1011E00088070080A8070080C8070080E807008003
:1011F00008080080280800804808008068080080EF
:1012000088080080A8080080C8080080E8080080DE
:1012100008090080280900804809008068090080CA
:1012200088090080A8090080C8090080E8090080BA
:10123000080A0080280A0080480A0080680A0080A6
:040000058000000077
:00000001FF
